:020000020000FC
:100000000EC0189516C1189518951895189518953D
:10001000189518951895189518951895189501E044
:100020000EBF0FE50DBF002744275527A2E6B0E01D
:1000300004E30D9300E20D9300E10D9306E00D93B0
:1000400003E007BB0FE308BB00E818E006BD16BDE0
:1000500005B3046205BB0BB700620BBFBDD078943B
:1000600040FF25D040FD13D041FF37D041FD26D0C1
:10007000B49B3AD0B4993FD0B39B42D0B39947D008
:1000800001D0EECFF8944527552778940895B49B76
:1000900008950AB506FD0895C09A002702BF02E43C
:1000A0000ABD04E003BF0091600009BD08950AB5D0
:1000B00006FF089500270ABDC09A0895B39B0895CE
:1000C00000B704FD0895C19A00270FBD09E900BFDC
:1000D000009161000EBD0DBD089500B704FF0895A5
:1000E000002700BFC19A0895E2DFC09840FD486034
:1000F000B29B12D00895C09A43FDC9DF477F08958F
:10010000ECDFC19841FD4061B59B25D00895C19AAF
:1001100044FDD4DF4F7E0895F89414E0A2E6B0E0E9
:10012000C09A6CD00D91009360001A9519F414E0F8
:10013000A2E6B0E0B49BFECF61D02BD0B49BF1CF50
:1001400002B70030D9F700270ABD03BF467F5E7FA4
:1001500030D078940895F89414E0A2E6B0E0C19A03
:100160005CD00D91009361001A9519F414E0A2E699
:10017000B0E0B39BFECF51D015D0B39BF1CF0FB5FC
:100180000030D9F7002700BF4D7E5D7F12D07894F4
:10019000089502E00ABD04E003BF09E309BD01E0E0
:1001A00002BF089509E800BF09E30DBD01E00FBDDE
:1001B00008951127222730916000E199FECF00E0D9
:1001C0000CBB1FBB2EBB3DBBE29AE19A3091610094
:1001D0002395223091F7089511272227E199FECF28
:1001E0001FBB2EBBE09A0DB30093600023951FBB8D
:1001F0002EBBE09A0DB300936100089502E00ABDA2
:1002000004E003BF07E009BD01E002BF02B7003010
:10021000E9F700270ABD03BF089509E800BF07E01A
:100220000DBD01E00FBD0FB50030E9F7002700BF9D
:100230000895B29BE3DFB59BF0DFB29B5160B59BA5
:04024000526018955B
:00000001FF
